:400000000040002011000000610100006101000008B500F0E9FCC04600000000000000000000000000000000000000000000000000000000000000000000000000000000F3
:400040000000000000000000000000000000000000000000000000000000000000000000000000000000000000000000000000000000000000000000000000000000000080
:400080000000000000000000000000000000000000000000000000000000000000000000000000000000000000000000000000000000000000000000000000000000000040
:4000C0000000000000000000000000000000000000000000000000000000000000000000000000000000000000000000000000000000000000000000000000000000000000
:4001000010B5064C2378002B07D1054B002B02D0044800E000BF0123237010BDF80F002000000000085F010008B5084B002B03D00748084900E000BF07480368002B00D1BC
:4001400008BD064B002BFBD09847F9E700000000085F0100FC0F0020A80B002000000000FEE7C04610B526280ED0282802D0012800D010BD454B1B78042B6ED0BF23444A8A
:4001800011680B401360F4E7404B1C78042CF0D1402140223E4803688B43DBB213433D4A036013688B43DBB213603B4A3F3113688B43DBB21360394B394A1C60394B1C60C4
:4001C000394B9A6401F035F8C023384A1B0411680B43136001F031F8354B1C6001F029F8344A8021136809069B009B081360324A13689B009B081360304A13689B009B0844
:4002000013602F4A13689B009B0813602D4A13689B009B0813602C4A13689B009B0813602A4A13689B009B081360294A13680B431360284B284A1B8828499BB21360284BE6
:400240001A681443FF221C600B6893430E3A13430B6030BF00F0F1FF8BE7224C227813408CD1C82220489200038243681A805A8000221E4B1A700FF003F9002800D07DE7C9
:40028000042322781343DBB2237077E75D10002000030440000204401002044080E200E0410A000080E100E00000002000E400E000E100E0080004400801044008020440DF
:4002C0000803044008040440080504400806044000000B4050F1FF0F0C000B402C000B4010ED00E05C100020AC0B00201410002008B5031C0749084A4869C3189A1A002AE8
:4003000006DD01F01FF90C2303600120404208BD4B61FCE7AC0B002080210020F0B557464E464546E0B490B062B6172116200323AA22D24DE9770931685401316A54EB763D
:400340002B776A77FB33883AAB54AB7700230132AB54D1310132A95487390132A9547B310132A954D6390132A954C6310132A954BB390132A954AF310132A954BF390132D1
:40038000A954043221316A548730013168544230013168544931A95411390132A9540132AB540132AB540132AB540132AB540132AB540132AB54173A3733EA540BAB9A4649
:4003C000AF4B5046191C0B3A984601F0F6F8AD4E7378002B06D1AC4A33701370AB4A1370013373700021AA4AAA4B08AC1A60218106AB1B31198059801739197108930023C2
:40040000123105AA201C69446260137004F0DEFD002800D1F1E001BE07229F4B1B681340022B00D0EEE101BE9B4B1A68C0231B021A40904600D1D6E1337C002B00D1A4E180
:40044000738A8020954900060A6802430A609449944A086802409020000402430A60924A1360337D002B00D148E1904B1B68002B0CDB8F4B1A68002AFCDB80218B4A090694
:400480001368A0200B43136000F0CAFE5246894B43CB43C21B68136053461B780022002B0ED085491F268C4684486146096831400829FAD00360534601329B5C002BF4D171
:4004C0007F48F02700F0ACFEC022784E7D483368BB431343336000F0A3FE7022FA2033688001BB431343336000F09AFE0122764B76491A600B681A42FCD00122734B00270D
:400500001A60734B20781B681EB236129946B3B2984600280BD01F226749684E0B681340082BFBD030600137E05D0028F6D1694800F076FE1F2260490B681340082BFBD009
:400540000A225E4B63481A6000F06AFE1F225A490B681340082BFBD00D22584B5D481A6000F05EFE4B46A868E96803764346C37506F0E2FB04F054FC032004F049FC00F0B5
:4005800058FE071C06F022FC0223061C9E43F6B29946042E4CD002282BD000F04AFE07223D4E9046336893434A461343336000F044FE494B99464A461B685B005B081360F7
:4005C00000F037FE0421454A13688B43136030BF00F033FE4B4680221B68120613434A46136000F026FE424633689343336000F024FE381C00F021FE62E70523AE22009346
:4006000001900290364937481201534604F03AFC002800D0FFE601224046334B14301A700D21073210F0EAFD002800D1F4E6F2E600F0FFFD2D4A804613685B005B08136023
:400640002B4B2C4A1B889BB21360244B1A6816431E60114E3368069300F0EBFD3268264B1340802252031343336000F0E6FD30BF069B4046336000F0E0FDBAE7AC0B0020F9
:40068000105F0100141000205C1000205E100020650100006C10002000010B400000244000010240FFFF0FFF880F244000003A4008023A40486001000802244040022440B5
:4006C00000863D00801A060024003A4010023A4080013A408038010008010B4010ED00E0C00000204D0A00005D10002000000B4052F1FF0F0C000B40FFFFC7FF00F099FD87
:40070000C023894A1B0611680B43136000F095FD864A874B1A600122864B1A60864B1B68002B5EDB8549864A8020136840020B431360844A844B85491A60854A854B1A602A
:400740000022854B1A60854B0B6085490B6085490B6803430B600121834B84481A60844B1A60844B196003689C466746824B3B408027BF053B4303608020804BC0001860AF
:400780007F4B32833175F3616FE67E497E4A7F4811607F4A7F49136001220A607E4901600720844667467D4807607D4803607D4802607D48016004207C490B607C4908602B
:4007C0007C490B607C490B607C490B607C490B607C490B607C490B600B6832749BB273822FE67A499FE77A4A1368002B00DB23E6784B99461B689B0F0ED013685B005B08EC
:40080000136019E600F015FD0323734A11680B43136000F012FD07E600F00BFD6F4A01231168890720D5434673606D4B1B681B041B0C6C4A6A4994464246012A33D042460A
:40084000002A1CD04246022A1ED1624612689342FBD05F4A13685B005B081360B368002B26D100F0EAFCE7E51168490A0B420FD0736001225A4B90461B681B0CD9E70A6884
:4008800092B29A42FBD0E4E701BE002BFCD0E0E71168490C0B421FD0022373600222514B90461B68C5E70A68120C9342FBD0D0E701214A4A13688B4313601268F3685208B6
:4008C000114206D1032743493B400A68BA4313430B600023B360C4E7414671604946B36009688C46032167460F40F76012685208134204D14B464A461B688B4313600122D2
:40090000364B19680A431A60022219680A42FCD07368012BADD0002B87D0022BBED001BE9846002385E7C0460CE400E0350A00007C00002020003A4080033A40700200503A
:4009400000003A40B4000A8004003A4010003A400000FF0718003A401C003A400400040014003A4000033A4028023A4030003A4038023A4018023A40FEFFFFDF80003A400B
:400980003E1800000B0000020000244000032440400024404800244007000080040324401003244044002440000224400402244050002440880E2440C80E2440480F244035
:4009C000080F2440C80F2440880F24407002105004010B400C020B4064F02E4010020B4000020B4004020B40F8B5104E002E18D000200F4DA9682C686A68002905D00023D9
:400A0000E758043380C29942FAD1E9680023002903D0D05004339942FBD1013E1035002EE8D100F095FDFFF779FCC0460100000060630100014B1A681A60704710023A403C
:400A40007047C04608B515F04BFA08BDF0B54746012380B4854C82B02278051C13430E1C23704C2817D8824A8300D3589F460B78002B10D14B78002B09D1AE2212019446BC
:400A8000638123817B4B63446360231D4B600122237893432370112223781A4207D02378103A93432370281C2369311C984702B004BC9046F0BD201C02220C3000F07DFD26
:400AC0000023A370E7E7072301AF98463B700023381C7B7006F0ACF943463B700123381C7B7006F0A5F9644B9A79002A47D11A78002A0ED15A78002A0BD19A78002A08D1DB
:400B0000DA78002A05D11A79002A02D15B79002B35D0594804F088F952E0002363732373B9E76378022BB6D02278D207B3D5042221780A4274D00323637023789343237083
:400B4000A9E702236370A6E704236370A3E78B89092B4BD02378DB079DD430680FF02EFE99E723789B0696D4444B1A78102A00D091E70B3ADA708EE70B78A3708BE7404B68
:400B80001F2218783F239C4618403E4B800119783D4B1140021C09030A4361461B7837480B401343394A4031127808300A405204134303701A0A1B0C4270837004F034F953
:400BC00003200EF04DFB3F233B700023381C7B700EF064FB042363705DE74988162903D830880FF073FD56E71721F9E7081D321C0021373310F01AFB00281FD00122237833
:400C00009343237023781A4200D044E7122301A98B70B389C87030680B800FF04DFD3AE708212078014204D0237862708B43237031E7032B00D02EE762702CE773681B785A
:400C40009B070DD50530FF30311C23699847012223789343237023781A4200D17DE71AE70620311CFF3023699847F0E75C10002058600100C000002000F2FF0F5C0C0020EF
:400C80007DF1FF0F7BF1FF0F7CF1FF0F78F1FF0F7047C0462B2070472B2070472B2070472B2070472B2070472B2070472B2070472B2070472B2070472B2070472B20704779
:400CC0000220FF307047C04610B58024084B64011C60084A084B1A6700F0ABFAC021074A13688B43136000F0A8FA054B1C6010BD80E100E0450A0000000000200CE400E0F5
:400D000000E100E0802208B5074B52011A60074A074B1A6700F08DFAC021064A13688B43136000F08AFA08BD80E100E0450A0000000000200CE400E08022024B52011A6077
:400D40007047C04680E100E08022024B52011A607047C04600E100E008B5000100F060FA08BDC046314B324A1978324B09021B781943314B1B7812781B0213432F4A93420E
:400D80004ED0D4221201934246D02D4A13602D4B2D4A19602D4B1B7812781B0213432C4A134200D12B4B2C4A13602C4B2C4A1B7812781B0213432B4A93420DD02A4A9342DF
:400DC0000AD0052B08D0294A1360294B1A68294B1B68AA2B09D07047274B244A1360244B1A68244B1B68AA2BF5D11F2AF3D91B4B1B780E2BEFD1214B214A1B7812781B02F0
:400E00001343204A1360204B204A1B7812781B0213431F4A1360DEE70429B6D11D4BB4E70729B2D11B4B0339AFE7C046D9F0FF0FDEF0FF0FD8F0FF0FDFF0FF0F580B000008
:400E40006C002E4074002E40DAF0FF0FDBF0FF0FFFDFFFFF0220000078002E40DDF0FF0FDCF0FF0F0F0F00000505000080002E40EC0F00F0E00F00F0050F00006DF2FF0F0B
:400E80006CF2FF0F84002E406FF2FF0F6EF2FF0F94002E40580D0000016070470160704708B500F0C6F90421034A13688B43136030BF00F0C2F908BD10ED00E0F0B54D4652
:400EC00044465F4656460121F0B4984A87B0136800248B431360964800239649964D04E00134C2500433302C08D00A1C032CF7D85A590134C2500433302CF6D172B600224D
:400F00008E4B00211A6080228D48D2009A4600F05DFB80220021D2008A4800F057FBEE22894B12061A609923884A1B041360884A88481360884A01271360884A884D1360F1
:400F4000884A894E13600222884B904619780A433C211A7002788A4328390A4302701622197883480A431A70D822824B12041A60202399464A46804B1A60C4227F4B92025F
:400F80001A604A467E4B1A607E4BA0321A60B0227D4BD2031A6080227C4BD2011A6041227B4B1A60C0227B4B52031A607A4B1F607A4B9B4612235A46136042462B68BB43CB
:400FC0002B602B6893432B6033680E32A343134333603368093A934380223B4333602B68120613432B6000F01BF942462B682B6893432B60336805329343424613434A46AC
:4010000033603368A343134333602B68FA243B432B6000F00EF9624B62491A6802AB0292614A01251268614E0392112204925A461268E40005925E4A00926A4601935D4BD4
:401040001A605D4A11601B6800F0F7F85B4A5C4B41461A6080225B4BD2051A605A4A13680B43136059495A4B19600021594B196053461B6808318B4351460B60564B196871
:401080000F4380211F60554B09021360544A13680B431360102000F0C3F833681D4202D1013C002CF6D14F4800F0BAF880228A214D4B92001A604D4B4D4A09021A604D4A79
:4010C000802411604C4A40211A60A622344B12061A600022344B24061A60484B48481960484B013119608021364BC90519602B4B45491A6003230B6044490B60444B4549E5
:401100001C6001230B6044490A6001682143016042490A66054A11680B43136007B03CBC90469946A246AB46F0BDC046000010400000002061010000000000006CF02E406F
:4011400000300F4000400F40000002400001024000500F4001700F4010500F4020500F4000F02E4030500F4000FF2E4000700F40001BB70008000440000104400801044006
:401180001801044000020440080204400C0204400003044008030440180304403000104008010B401700008000010B400C002E40B6EA0000080010400400104006000080F4
:4011C00004010B400C020B4078002E406A2D00007C002E4064F02E4060F02E400220000010002E40C05D0000000301400000014040FF00800403014041FF008018010140FC
:4012000080033A4004010140300030403000314000003A4000033A40000E3F40400B00200230800803D00138FDD1C046C046C0467047EFF3108072B6704780F310887047CB
:40124000002243088B4274D303098B425FD3030A8B4244D3030B8B4228D3030C8B420DD3FF22090212BA030C8B4202D31212090265D0030B8B4219D300E0090AC30B8B42FD
:4012800001D3CB03C01A5241830B8B4201D38B03C01A5241430B8B4201D34B03C01A5241030B8B4201D30B03C01A5241C30A8B4201D3CB02C01A5241830A8B4201D38B02BE
:4012C000C01A5241430A8B4201D34B02C01A5241030A8B4201D30B02C01A5241CDD2C3098B4201D3CB01C01A524183098B4201D38B01C01A524143098B4201D34B01C01A33
:40130000524103098B4201D30B01C01A5241C3088B4201D3CB00C01A524183088B4201D38B00C01A524143088B4201D34B00C01A5241411A00D20146524110467047FFE78E
:4013400001B5002000F0FCF802BDC0460029F7D003B5FFF775FF0EBC4243891A1847C04603460B437FD4002243088B4274D303098B425FD3030A8B4244D3030B8B4228D348
:40138000030C8B420DD3FF22090212BA030C8B4202D31212090265D0030B8B4219D300E0090AC30B8B4201D3CB03C01A5241830B8B4201D38B03C01A5241430B8B4201D3E7
:4013C0004B03C01A5241030B8B4201D30B03C01A5241C30A8B4201D3CB02C01A5241830A8B4201D38B02C01A5241430A8B4201D34B02C01A5241030A8B4201D30B02C01AFB
:401400005241CDD2C3098B4201D3CB01C01A524183098B4201D38B01C01A524143098B4201D34B01C01A524103098B4201D30B01C01A5241C3088B4201D3CB00C01A52413E
:4014400083088B4201D38B00C01A524143088B4201D34B00C01A5241411A00D201465241104670475DE0CA0F00D04942031000D34042534000229C4603098B422DD3030A3A
:401480008B4212D3FC22890112BA030A8B420CD3890192118B4208D3890192118B4204D389013AD0921100E08909C3098B4201D3CB01C01A524183098B4201D38B01C01AC5
:4014C000524143098B4201D34B01C01A524103098B4201D30B01C01A5241C3088B4201D3CB00C01A524183088B4201D38B00C01A5241D9D243088B4201D34B00C01A524176
:40150000411A00D20146634652415B10104601D34042002B00D54942704763465B1000D3404201B5002000F00BF802BD0029F8D003B5FFF715FF0EBC4243891A1847C046A7
:401540007047C046014B18687047C046B80F00200E4B70B500251E1C0D4CE41AA410A54204D0AB00F35898470135F8E714F0E6FE084B00251E1C084CE41AA410A54204D056
:40158000AB00F35898470135F8E770BD4863010048630100486301005063010030B50024944208D0035D651C0C5DA34201D0181B02E02C1CF4E7002030BD002310B59342A3
:4015C00003D0CC5CC4540133F9E710BD031C8218934202D019700133FAE77047F0B58BB0141C1D1E129906DA802424062B191D1C141C2D2300E000230B702023149E032209
:401600009E43462E07D0331C453B59424B411099013ACB181093109B00920193139B221C029308AB039309AB04932B1C00F0CEFB071C472E02D1119BDB072CD5109BFB1880
:401640000793462E14D13B78302B0CD1201C291C0022002301F046FD002804D10123109A9B1A139A1360139B079A1B68D3180793201C291C0022002301F034FD002801D0BA
:40168000079B0993099B079A934204D25A1C099230221A70F6E7381C099B159ADB1B13600BB0F0BDF7B52B23071C0C1C0270861C002901DA2D234C427B70092C1CDD6B46B5
:4016C000DD1D201C0A21FFF731FF013D30312970201C0A21FFF744FE041E092CF1DC013D30342C706B460733301CAB4209D92B78013533700136F5E73023E4183370B01CD7
:401700007470C01BFEBD0000F0B593B00C1C08920993189E051C01F059F90368181C0B9300F0C6FA0023216810930C90277E33680722C90501D59B1800E0073393431A1C11
:40174000083232601A685B68A264E364A06CE16C00F086FA012818D1A06CE16C0022002301F0C6FC002803D0231C2D2243331A70B64B0A93472F01D9B54B0A93032322681B
:40178000236101339A43226012E0A06CE16C00F067FA266800280DD1AE4B0A93472F01D9AD4B0A930323311C2361013399432160002680E080216068C900431C01D10623CD
:4017C00009E0A26CE36C672F01D0472F04D1002800D0C0E101236360636831430093232321600191002106AA9B1802930FAB039310AB05930497A26CE36C0691281CFFF7C1
:40180000EDFE20233A1C0A909A43472A07D10F9BDA1C02DB626893422DDD023FFFB20F99652F12D8201C01393A1C50300F91FFF739FF109A061C83182361012A02DC22688E
:40184000D2072ED5013323612BE0662F14D16368002908DD2161002B02D12268D2071DD50133CB1811E0002B03D101222168114213D09A1C11E067270F9B1098834206DB8B
:4018800022682361D20709D50133236106E00122002B01DC0221CA1A8218226100260F9BA365232306AA9B181B78002B03D0231C2D2243331A70099B281C0093211C089B7B
:4018C00011AA00F05FF9431C02D10120404256E12268530504D4281C08990A9A236916E1652F00D8D4E0A06CE16C0022002301F0F9FB00282BD00123281C0899574A099EFC
:40190000B047431CE1D00F9B109A934207DB2368DB0704D423689B0700D51AE113E1099E281C08990B9A0C9BB0470026431CCCD0109B013B9E42EDDA221C0123281C08999A
:401940001A32099FB847431CBFD00136F0E70F9B002B2BDC0123281C0899404A099EB047431CB2D00F9B002B05D1109B002B02D12368DB07CED5099E281C08990B9A0C9B4E
:40198000B0470026431CA0D00F9B281C5B4208999E4208DA221C01231A32099FB847431C93D00136F0E70A9A109BB0E0109BA66D9E4200DD1E1C002E01DC002314E0331C23
:4019C000281C08990A9A099FB847431CF5D17CE7221C0123281C08991A32099FB847431C00D172E70D9B01330D93F343A26DDB170D993340D31A9942EADB0A9B9E180F9B0E
:401A0000109A93420EDB2368DB070BD4109B0A9AD7180F9ABF1B9B1A9F4200DD1F1C002F09DC11E00C9B281C08990B9A099FB847431CEBD149E7321C3B1C281C0899099E2A
:401A4000B047431C00D140E7002315E092610100966101009A6101009E610100A2610100221C0123281C08991A32099EB047431C00D12AE70A9B01330A930F9A109B9A1A24
:401A8000FB43DB173B40D31A0A9A9A42E8DB41E7109B281C0899012B02DC01231A423CD001230A9A099FB847431C00D10DE70C9B281C08990B9A099FB847431C00D104E777
:401AC000A06CE16C0023002201F00CFB0023002812D10A9A109B0132013B281C08991DE0221C0123281C08991A32099FB847431C00D1EAE60A9B01330A93109B0A9A013B47
:401B00009A42EDDB221C281C331C08995032099EB047431C00D0FDE6D7E60A9A099FB847431CEFD1D1E6221C0123281C08991932099FB847431C00D1C7E60136E368119A3C
:401B40009B1A9E42EFDB119BE068984217DA181C15E00026F2E73143216001912321009006A8091802910FA9039110A90591002104970691281CFFF731FD0A9047E613B082
:401B8000F0BDC046F7B5171C01930A698B6800900C1C934200DA131C221C3B6043321278002A01D001333B6023689B0602D53B6802333B60062523681D401ED0231C433335
:401BC0001B785A1E9341226892061CD53020E1184031C870211C5A1C45310978A21840320233D1700FE0221C0123009801991932089EB047431C0ED00135E3683A689B1A35
:401C00009D42F0DBDAE7221C009801994332089DA847431C02D10120404220E006232068E1683A6803400025042B03D18D1AEB43DB171D40A3682269934201DD9B1AED18BD
:401C40000027AF420ADA221C0123009801991A32089EB047431CDED00137F2E70020FEBD30B50C1C0223044317D080242406A14201D1002811D00A4B49004908094ACC18E0
:401C80000423944209D9084A013B914205D9074A0023914201D143424341181C30BDC0460000F0FFFFFFDF7FFFFF0F000000F07F0023C25C0133002AFBD1581E7047F0B5B9
:401CC00003690C6989B00026A3427CDB0B1C013C1433A50003935B190493031C143301935D19049B07911B680290591C28680593FFF7A6FA071EB74235D0039B01989C464C
:401D00000596634604CB91B27943120C7A4371180E0C9C46B318069302881E0C059B89B2D2180368521A190C6B461B8BCB1A11145B18191492B21B041A43049B059104C09E
:401D40006345DED22B68002B0DD1231C019A043D954203D8029A1C1C136104E02A68002AF8D1013BF2E70298079901F04FF8002828DB00200199039A013720CA0B88181803
:401D8000ABB2C31A08682D0C000C451B1E14AD1928149BB22D042B4308C1049B9342ECD2019AA300D3181A68002A0BD1019A043B934202D8029B1C6104E01A68002AF9D10B
:401DC000013CF3E73E1C301C09B0F0BDF0B5161C1F1C446A9BB00890239D06960797002C08D1102000F0F6FD089B5862446084600460C460089B5B6A196800290BD05A68EF
:401E0000012393404A608B60089800F025FE0022089B5B6A1A60079B002B05DA01232B607B005B08079301E000232B60079CC64B221C17931A409A4219D1C44B229A136003
:401E4000069AC34B002A02D1240300D1C14B249A181C002A01D100F0B6FDD978DA1C002900D005322499181C0A6000F0ACFD069E079F0022301C391C002301F033F9051E47
:401E80000ED00123229A1360B34B249A181C002A01D100F098FDB14A24990A6000F093FD19AB009318AB01930898321C3B1C01F033F861000A90490D09D03803A84C000B6B
:401EC0000443A848321C231C0E1816951CE0189B199A9E18A44B9E4209DBA44BF018069BC340181CA24B9B1B9C40204304E0A148069B801B8340181C02F00EFF9E4C021CCA
:401F00000B190121013E1691101C191C00229B4B02F016FB9A4A9B4B02F078F89A4A9B4B01F00EF9041C301C0D1C02F0B9FE984A984B02F06BF8021C0B1C201C291C01F00C
:401F4000FFF8041C0D1C02F075FE291C03900022201C002301F0CCF800280DD0039802F09FFE021C0B1C201C291C01F0BBF843424341039AD31A039301231393039B162B43
:401F800011D8854ADB00D31818685968069A079B01F0C2F8002805D0039B013B03930023139300E01390189B9E1B00230D93013E0E9604D50E9B5B420D9300230E93039B89
:401FC000002B08DB039A0E9B944663440E93002312920F9307E00D9B039A9B1A0D9353420F9300231293209B0125092B27D8052B02DD0025043B2093209B981E032823D8B1
:4020000001F056F8020E0410002300E001231093219B002B21DC01230B9309931A1C1AE0002300E00123039A10939446219B63440B9301330993002B12DC012310E000239F
:4020400010952093013B02E001231093023B00220B9309931333219202E0219B0B930993089A546A002262600432111C1431994204D86168520001316160F6E708986168C2
:4020800000F0B2FC089B20605B6A1B680C93099B0E2B00D988E1002D00D185E1069B079C14931594039B002B30DD0F223A491340DB00CB185C681B6804930594039B022788
:4020C0001D11EB060AD514981599344B15401A6A5B6A01F05DFB0690079101372F4C002D0DD0EB0708D5049805992268636801F08DFF0490059101376D100834EFE70698CD
:402100000799049A059B01F043FB49E0039B02275D42002D46D0149815990F231E4A2B40DB00D3181A685B6801F070FF1B4C2D11002D35D0EB0704D522686368013701F0D6
:4021400065FF6D100834F3E70000F07F0F270000AD610100A4610100A2610100A36101000000F03F01FCFFFFEFFBFFFF120400000EFCFFFFEEFBFFFF000010FE0000F83F49
:4021800061436F63A787D23FB3C8608B288AC63FFB799F501344D33FC06101008862010006900791139B002B1ED0069C079D0022201C291CCE4B00F09BFF002814D0099B43
:4021C000002B11D00B9B002B00DCE9E0039B291C013B1193201C0022C64B01F017FF0137069007910B9D02E0039B099D1193381C069B079C0493059402F052FD049A059B05
:4022000001F004FF0022BC4B00F09AFF06900791069E079F079BB94A9C18002D1CD1049805990022B64B02F08BF9321C231C0490059100F071FF002800D063E204980599AC
:40224000321CB04E079CB4466444231C00F050FF002800D04CE2A3E0AB4A6B1E1099DB00D31800294ED01A685B680020A74901F08FFA321C231C02F063F9049E059F0C9BDB
:40228000069007910493391C301C02F0D3FC041C02F006FD021C0B1C301C391C02F050F9049B303401330493013B1C70069A079B061C0F1C00F01CFF002800D061E3321C07
:4022C0003B1C00208A4902F03BF9069A079B00F00FFF002800D0CDE0049B0C9A9B1AAB425EDA069807990022824B01F08FFE0022069007917F4B301C391C01F087FE061C6C
:402300000F1CC0E718685968321C231C01F07EFE049E059F0C9C0690079163190493391C301C02F087FC051C02F0BAFC0B1C021C391C301C02F004F93035049B25700134DF
:40234000061C0F1CA34224D10022069807996F4B00F0F6FE021C0B1C301C391C00F0DCFE002800D086E0069A079B0020674902F0E7F8021C0B1C301C391C00F0B9FE002892
:402380000ED0049B013B1A78302A00D0F9E20493F7E70022574B01F039FE061C0F1CBEE7149B159C06930794199B002B00DA86E0039A0E2A00DD82E0D300534AD3181E68D2
:4023C0005F68219B002B14DA099B002B11DC00D090E1301C391C0022494B01F017FE069A079B00F0A3FE099F3E1C002800D083E18CE10C9B069C079D0493321C3B1C201CE4
:40240000291C01F0C5F902F015FC069002F048FC321C3B1C01F0FAFD021C0B1C201C291C02F08EF80B1C0499021C0698013104913030013908700C980499091A09988142ED
:402440002ED1101C191C00F07BFE321C3B1C041C0D1C00F061FE002810D1201C291C321C3B1C00F03FFE002800D18CE2069BDB0704D488E2119B039300E00493049B013B3A
:402480001A78392A08D10C9A9342F6D1039B0133039330231370131C1A7801321A7072E2101C191C0022134B01F0B0FD00220023041C0D1C00F016FE00289ED063E2109A66
:4024C000002A44D0209A012A0BDC169A002A02D00F4A9B1802E03623189A9B1A0F9D0D9C29E0099B5D1E0F9BAB4213DB5D1B18E00000F03F0000244000001C400000C0FC5B
:40250000000014400000C07CC06101000000E03F330400000F9B0F95EA1A0025129B9B181293099B002B04DA0D9B099A9C1A002301E00D9C099B0D9A0898D2180D920E9AA0
:402540000121D3180E9300F026FB061C02E00F9D0D9C109E002C0CD00E9B002B09DDA34200DD231C0D9AE41AD21A0D920E9AD31A0E930F9B002B21DD109B002B18D0002DAE
:4025800010DD311C2A1C089800F09CFB061C0A9A311C089800F008FB071C0A99089800F05BFA0A970F9B5A1B08D008980A9902E008980A990F9A00F085FB0A9008980121AE
:4025C00000F0E9FA129B071C002B0ADD391C1A1C089800F077FB209B071C0025012B1BDC03E0209B0025012B12DC0025069BAB420ED1079B1B03AB420AD1179B079A1342D4
:4026000006D00D9B013501330D930E9B01330E93129B0120002B08D03B6903339B00FB18586800F06EFA2023181A0E9BC0181F23184009D001331B1A042B02DD1C23181AD2
:4026400003E0042B08D0181C1C300D9B24181B180D930E9B1B180E930D9B002B05DD08980A991A1C00F080FB0A900E9B002B05DD391C08981A1C00F077FB071C139B002B4A
:402680001ED00A98391C00F0C1FB002818DA039B0898013B03930A9900230A2200F0F5F9109B0A90002B00D17FE1311C002308980A2200F0EAF90B9B061C002B3CDC7DE176
:4026C000099B002B2EDC209B022B2BDD099B0B930B9B002B10D1391C0898052200F0D5F9071C0A98391C00F091FB00280EDC03E02F1C00E000273E1C219BDB4303930C9BF5
:4027000004930CE02F1C2E1C119B03930C9B0C9A0133049331231370039B01330393099600261AE1109B002B04D1099B0B930C9D0A9CD0E0099B0B93002C05DD311C0898FF
:40274000221C00F011FB061C0996002D12D07168089800F049F9311C041C33690C319A1C92000C30FEF729FF0898211C012200F0FBFA09900C9B0C9A0E930B9B0A9C013BC9
:40278000D3181093391C201CFFF799FA031C0F903033311C201C0D9300F038FB391C0B90099A089800F04DFB01230493C368051C002B04D1201C291C00F028FB04900898CA
:4027C000291C00F049F9049B209A134310D1069A013313420CD10D980A9439283DD00B9B002B01DD0F9831300E9B013304933EE00B9B002B05DA049B0D9D0A94002B09DC2B
:402800001CE00B9D209B1D431ED10123069A13421AD1F0E7211C0898012200F0A5FA391C0A9000F0F3FA002803DC07D10D9BDB0704D50D9B392B10D01D1C01350E9B01333A
:4028400004930E9B1D7088E00E9B5D1C049B002B10DD0D9B0A94392B06D10E9B0E9A013304933923137060E00D98049501300E9B187072E06A463421521812780E9B049561
:402880001A70109A93423FD0211C0A220023089800F0FBF8099B041C311C08980A229E4205D1002300F0F1F8061C09900AE0002300F0EBF80999061C0A220898002300F024
:4028C000E4F809900E955DE7211C08980A22002300F0DBF8041C201C391CFFF7F0F934226B4630309B180D901B780B9A2B700C9B0135EB1A9342E7DB131E00DC012309962A
:4029000000260C9AD3180493211C0898012200F02BFA391C0A9000F079FA002805DC15D10D9BDB0701D411E00493049B013B1A78392A08D10C9A9342F6D1039B01330393B9
:402940003123137009E001321A7006E0049B013B1A78302A01D10493F8E70898391C00F07BF8099B002B0ED0002E05D09E4203D00898311C00F070F80898099900F06CF84F
:4029800001E0119B039308980A9900F065F80023049A0C981370039B229A01331360249B002B10D0049A1A600DE00B9B002B00DDBDE6209B022B00DD8AE6B8E6209B022BA0
:4029C00000DD85E6B8E61BB0F0BDC04600487047BC0F002008B5034B011C186800F0FEFA08BDC046B80F002070B5466A041C0D1C002E07D11020FFF7EDFF606246608660C3
:402A00000660C660666AF368002B09D0626AAB00D268D318186800280ED002681A6017E0201C0421212200F0CBFA636AF060DB68002BEBD100200EE001210E1CAE40721D67
:402A40009200201C00F0BCFA0028F3D04560866000230361C36070BD70B5456A061C0C1C002D07D11020FFF7B5FF7062456085600560C560002C07D0726A6368D2689B0033
:402A8000D3181A6822601C6070BDF7B51E1C14239C46071C0C1C00200D698C44634619881B6851431B0C534389190E0CF31889B21E0C1B045B186146013008C18C46A84295
:402AC000ECDB002E1BD0A3689D4212DB6368381C591CFFF789FF211C236901909A1C0C3192000C30FEF769FD211C381CFFF7B4FF019C2B1D9B00E31801355E602561201C2C
:402B0000FEBD0022031C010C914201D103041032190E01D108321B02190F01D104321B01990F01D102329B00101C002B03DB20205B0000D5501C70470722036810B5011C7B
:402B40001A400CD001240020234223D10222134203D0E340201C0B601CE09B0818E098B2002801D110221B0CD8B2002801D108321B0A180701D104321B09980701D1023264
:402B80009B08D80704D45B082020002B02D00132101C0B6010BD10B50C1C0121FFF724FF01234461036110BDF0B50B69141C126989B00D1C934201DA251C0C1C2F692669FC
:402BC000AA68BB1969680093934200DD0131FFF70BFF011C009B1431844698000B1C0818834202D2002204C3FAE71435BF00EB191434B6000493A31902950693069B9C4292
:402C000056D223880393002B22D00E1C0027029B0193019B039D04CB059601933388079393B26B43079D120CEB183568DB192F0C039D6A43BA181F0CD219170C9BB21204BE
:402C4000134308C6019A049B9A42E2D3059B5F6023681B0C019321D000220D1C0B68029F03923E88019A9BB256432A680595120CB218039E9219160433432B6008CF019EA3
:402C80001B0C7343AE88120C9B199B181A0C0392049A0435BA42E4D8059A536004340431ACE704380368002B05D1009B013B0093009B002BF5DC63466046009A1A6109B01A
:402CC000F0BD00000323F7B51340051C0E1C141C002B07D0224A013B9B009A580023FFF7D4FE061CA310019337D06C6A002C07D11020FFF76FFE6862446084600460C460AE
:402D00006F6ABC68002C10D1281C1649FFF743FF0023B860041C036007E0019B5B1001931BD0206800280FD0041C019BDB07F4D5311C221C281CFFF737FF071C311C281CDE
:402D4000FFF78AFE3E1CE8E7281C211C221CFFF72BFF002320600360E6E7301CFEBDC046B062010071020000F0B50C1C171C2369551185B0EB180193013300934968A36826
:402D80000290009A9A4202DD01315B00F9E70298FFF72AFE021C061C00231432AB4204DA0020990050500133F8E7EB43DB171D40231CAD0055192269143392009A18944660
:402DC0001F22174014D00132D21B039200221968281CB9400A4304C504CB0399CA409C45F5D84260002A07D0019B0233009303E004CB04C59C45FBD8009B0298013B33614E
:402E0000211CFFF729FE301C05B0F0BD03690A6910B59B1A041C181E12D1930014341431E218C918043A043913680868834204D083429B410120184302E0A242F2D8002031
:402E400010BDF0B5071C85B0081C0C1C111C151CFFF7DCFF061E07D1381C311CFFF7C4FD01234661036155E000230193984204DA231C2C1C1D1C01230193381C6168FFF75B
:402E8000B3FD019B26692F1CC3601434B300E318021C02932B69002514379B00FB180393143208CC69469C4608CF0432009363468B808B885D19009B9BB2EB1A6546019324
:402EC000009B2D0C190C019B691A1D14131F9C466B4649199B880D1409040B4361460B60039B9F42DDD30299131C8C420BD208CC99B249190D141B0CEB181D1489B21B04B6
:402F00000B4308C2EFE7043B1A68002A01D1013EF9E7066105B0F0BDF7B51D1C0121089F141CFFF761FD2B036D00061C1B0B6D0D02D08022520313430193002C18D06846FA
:402F40000094FFF7F9FD009C002809D02023019A191A131C8B40C24023437361019200E07461019CB461631E9C410134346107E001A8FFF7E1FD0124019B346173612030ED
:402F8000002D06D00B4BED1835232D183D60181A0BE0094BC018094B3860E3189B00F3185869FFF7AEFD6401201A099B1860301CFEBDC046CDFBFFFFCEFBFFFFFFFFFF3FB0
:402FC0004A4338B5111C141C00F008F8051E03D00021221CFEF7FAFA281C38BD032370B5CC1C9C430834051C0C2C01D20C2405E0002C03DA0C2300202B6042E08C42F9D365
:40300000204A1368101C191C002913D00A68121B0DD40B2A02D90A608B181FE08B4202D15A6802601BE04A685A600B1C17E00B1C4968E9E7144E3368002B03D1281C00F081
:4030400025F83060281C211C00F020F8031C421CD0D00322C61C964386420AD11C60181C07210B301A1D8843821A0AD05142995007E0311A281C00F009F8431CBAD0331CD4
:40308000ECE770BD782100207421002038B50023064C051C081C2360FDF72AF9431C03D12368002B00D02B6038BDC0467C21002002B4714649084900095C49008E4402BC20
:4030C0007047C0468446101C62468C46191C634600E0C0461FB500F033FF002801D40021C8421FBD10B500F077FE4042013010BD10B500F025FF002801DB002010BD012050
:4031000010BDC04610B500F01BFF002801DD002010BD012010BDC04610B500F0A1FE002801DC002010BD012010BDC04610B500F097FE002801DA002010BD012010BDC0469E
:40314000F0B5454657464E4694464C000A03C90FE0B488460E1C1903470FC500480A6146490F01436046520A1743C0005A00640D520DDB0F8446984500D1A7E0A01A00287A
:4031800000DC01E1002A3DD163460B4300D0D4E06B0700D188E00F232B40042B00D183E02A1DAA42AD4180236D427F191B043B404646151C002B00D17CE0CC4B01349C420F
:4031C00000D1FDE03A1CCA4BED081A405007640552020543120B640D002112030B0D1B056405120B1A436308C24CF60714401C43640064083443281C211C1CBC90469946AE
:40320000A246F0BDB94B9C42C2D080231B041943382800DDECE01F2800DD21E120220E1C6346121A9640C340334366469640321C561EB24113430A1CC240EB1A9D42B64118
:403240001D1CBA1A7642971B3B0200D497E07A02560A002E00D1B6E0301C01F08FFD031C083B1F2B00DDB7E09E40371C28262A1C361AF240161C9D403E439C4200DDB2E0D1
:403280001C1B621C1F2A00DDD8E01F23291C1C1B331CA540A340D1406C1EA541D64019430D43371C002473E780231B043B40464600D082E78D4BED0878070543FA089C421C
:4032C00032D012036405120B640D85E7A31A002B00DC94E0002A3CD0844A944200D157E7802212041143382B00DC05E163461943481E81410022C8B24019A8429B41051CF9
:40330000D2195B42D7183B0239D5784B01349C4200D14CE10120764A6B083A4028401843D5070543570833E72B1C134348D080231B031A431203120B4EE70138002878D1E5
:403340006346EE1AB5429B417A1A5B42D71A351C7AE7021C0A4300D11AE7013B002B00D0F2E04019A8429B41CA195B42D718051CC9E7131C334300D118E1171C351C4646D1
:403380006B0700D007E795E700287AD1621C5205520D012A00DCFBE06246AA1A9542B6419146781A7242861A320200D493E06246551BAC458041CF1B40423E1A984648E7CB
:4033C0000022002508E7281C01F0D8FC2030031C083B1F2B00DC47E7283885402E1C00259C4200DC4CE7424AE41A1640371CCFE6634619434B1E99410022CBB21DE7002B09
:4034000000D0F2E0601C43055B0D012B00DCA4E0364B984200D121E163465C19AC429B41CF195B42FA186408D50725435708041CAEE62E4B9C4200D0EAE6A9E6211C331CB0
:403440001F39CB40191C202A00D182E03F231C1BA64035436E1EB54100270D4300248EE7031C0E1C203BDE40202874D040231B1A99400B1C62461343591E8B4100223343EF
:40348000DBE6002C50D0194CA24200D1A8E08024240440422743382800DDD9E01F2800DD39E120243E1C241AA640B0462E1CA146C640444626434C46A5406C1EA541C740A1
:4034C00035436046451BCF1BAC45894149427F1A141C9846B8E64B464D46334300D0B8E60026002700240025E4E6C046FF070000FFFF7FFFFFFF0F801F2B5BDC2022081C75
:40350000D21A9040814660469246D8404A4610438146524660469040021C501E8241484610430A1CDA40E7E63C1C2C4358D0C043002851D16046451BAC458041CF1B40421D
:403540003F1A141C98467FE68F4A944200D0CAE61EE600267DE700238CE73B1C2B43002C00D0BDE0002B00D1F5E063460B4300D10EE663465B19AB428041CA1940421718E2
:403580003A0200D4FCE0814A1D1C17400134FFE53A1C2A43002C51D1002A00D085E062460A4303D00F1C65469846F1E50026002700257FE6181C0A1C2038C240202B00D142
:4035C000A7E04020C01A8140081C63461843411E8841104300228FE66B4CA24200D05AE70F1C6546141C9846D2E5002C3AD1381C284371D0DB43002B18D0634882426BD0B6
:40360000382B00DD9DE01F2B00DDA7E020203C1CC01A8440A1462C1C8246DC404846044350468540681E8541DF402543654465459B417F185B42FF18141C64E6002A19D1CB
:4036400062460A4377D00F1C654698464E4C9FE53D436F1EBD410027EDB232E7041C0027002527E64848824236D0802000045B420743C5E762460A4349D08024ED08780722
:40368000FA0824032843224209D0CE08264206D162464F07381CD20810439846321CD200470F1743C500384C72E562460A4300D16EE56246AE1AB5429241781A5242821A42
:4036C000100200D455E66246551BAC458041CA1B4042171A98465BE50F1C6546141C57E5002B34D063460B4311D08024ED087807FA08240328432242D1D0CB082342CED158
:4037000062464F07381CD20810431A1CC7E71E4C3EE5002059E7041C3E1C203CE640341C20282BD04026301A87403D436F1EBD4100272543C5E680270026FF03124C00259C
:40374000B8E53D436F1EBD410027EDB26EE70F1C65460D4C1CE50F1C654619E51C1C381C203CE040041C202B0CD04020C31A9F403D436F1EBD410027254357E70027D4E75D
:403780001D1CFCE50027F3E7FF070000FFFF7FFFF0B55F4656464D464446F0B40F0387B098464D003B0BCC0F061C924681469B466D0D01946BD0664B9D4235D080275B4667
:4037C0007F031F43F3009946624BFF00400F9C4607430023BB46002665440093424617035000D20F53463F0B400D904600D172E0574A904267D080235B031F435346554A25
:403800005B0FFF001F43944653460021DB0060444246624092462D1A0E430F2E00D9A1E04D48B600805987465B461E4300D076E000239B469946023308260093CEE79946F3
:403840004346BB4601930091009B022B6BD1019B9A46002153460122002789461A403C4B00213F030C0D24053F0B27433B4C1B0527401F437F00D2077F0817434846391C80
:4038800007B03CBC90469946A246AB46F0BD03433ED05B46002B00D19CE1584601F06EFA2823311C1B1A021C5F46D940083A97400B1C96403B439B46B1460023284D0026E6
:4038C0002D1A00938AE7524603213A43A0D10027002302219CE752463A4315D0002F00D185E1381C01F04AFA021C28215046891A131CC8405146083B99409F400B1C074320
:4039000017480021801A83E70027002301217FE700239B4699460133042600935EE703230C2600935AE7032B00D13CE2012B00D0BFE11A1C019B1A400021002300278946CD
:403940008EE700238027994600223F03004B87E7FF07000001FCFFFFBC620100FFFF0F800DFCFFFFBB4500D951E100D14CE14A46039200225C469046013D180E3F02384370
:403980001B020193030C994603041B0C4946061C201C1F1C0093FDF753FC021C7A4302904946201C171CFDF7D1FC039B09041B0C19438F420CD9029B8919013B8E4200D908
:4039C00052E18F4200D84FE1029B8919023B0293CC1B201C4946FDF733FC009F834647434946201CFDF7B2FC039A0B041404240C23439F420DD95A469B19013A9E4200D90D
:403A000030E19F4200D82DE10222524294469B19E344029ADB1B17045A463A439346019C170C220C101C04925A4611042204120C141C090C7C4305924A4341434743611846
:403A4000100C09188C4203D980204002844667440C0C12040804120C3C198118A34200D2E5E000D1DFE01F1B43465C1AA04592415242BF1AB74200D10EE1381C4946FDF7C8
:403A8000DFFB009B029043434946381C9846FDF75DFC230C0F041F43B8450CD9029BBF19013BBE4200D9FBE0B84500D8F8E0029BBF19023B02934346FF1A4946381CFDF713
:403AC000BFFB009B039043434946381C9846FDF73DFC24040904240C214388450CD9039B8919013B8E4200D9DCE0884500D8D9E0039B8919023B03934346C91A029B039AF7
:403B00001B04059C1A43100C13049146221C049F1B0C5A4344437B437843E318170CDB199C4203D980246402A44660441C0C12041B04120C00199B18814200D296E000D132
:403B4000FCE04A4601231A4391469B4BEB18002B00DC99E04A4652070AD00F2249460A40042A05D00431494592418946524293445A46D20106D55A46904B1A4080239346D9
:403B8000DB00EB188E4A934200DD62E64A465946D208490711435A4689465702514601225B053F0B5B0D0A405AE680205A460003024208D0074206D107433F0399463F0B56
:403BC0004246804B4CE65F4607433F033F0B221C7C4B45E601F0D2F8031C2030272800DC5EE6083B9E400023B346994665E6504601F0C4F8021C2032272A00DC75E65746BD
:403C00000838874000237BE6994500D2AFE65A46594654084A46C8075208024303924A46D2079046A9E60027884500D31CE7019F5A46BC46E044B845BF417F42BF19FF18DB
:403C4000013ABE4206D2BC425FD800D19FE03F1B934609E7B742FAD1019B4345F3D9371B934601E79346D4E60293B1E64A468919013A8E4218D99146814200D061E7019A88
:403C80009A4200D05DE760E74F4F7F1B382F13DD012253461A404FE601235B42994654E7029308E7039327E788423CD874D0914647E7019B9A4648E71F2F44DC434B4A4692
:403CC0009C465B466544FA40AB4013434A46AA40151C6A1E95415A46FA402B43171C5A0709D00F221A40042A05D01A1D9A429B415B42FF18131C3A023ED5534601220021D3
:403D00001A40002701238946AAE502235B429C46019AE3449446E04490459B415B429B19DF193F1BA0E6019F4A467C00BC42BF417F42BF19023AC91901949CE7002B95D138
:403D4000002201929BE75A46214B5B1BDA40202F27D0204B9C465B466544AB4049460B43591E8B411343072200271A4007D00F2200271A40042AB8D17A077F023F0BDB0819
:403D800013439946012253461A40002368E54145BBD89346002767E6019C9C42C3D391466DE70023DAE780275B463F031F433F033F0B019A034B53E5FF030000FFFFFFFE2C
:403DC000FE070000FF07000002FCFFFF1E040000E2FBFFFF3E040000F0B55F464D4644465646F0B41F035C00DB0F99461B4B0E034D00C90F8446360B6D0D8B4690463F0B7D
:403E0000640D9D420CD0154B9C4210D00123A54214D0181C3CBC90469946A246AB46F0BD311C01230143F4D10C4B9C42EED13A430123002AEDD10123A542EAD1BE42E8D16C
:403E4000C445E6D1CB4506D0002DE2D13043031C581E8341DDE70023DBE7C046FF070000F0B5574645464E46E0B40F034E00C90F8A4632491D035C0084463F0B760D9046DA
:403E80002D0B640DDB0F8E420FD08C4239D0002E10D13843414241418946002C27D12A4325D1002000290ED108E0391C01432ED1B44226D0002C0BD09A450DD05346594279
:403EC00001231943081C1CBC90469946A246F0BD2A43F3D09A45F1D1A642EFDC1ADA504641424841012341421943081CEBE74A46002AE1D058425841012241421143081C2D
:403F0000E1E7291C114302D1002EC2D0D4E702204042D8E7AF42D1D809D00020AF42D2D2504641424841012340421843CBE7C445C4D80020C445F3D3C5E7C046FF070000A6
:403F4000F0B55F464D46444656468046F0B4061C0803000B84462C484C001F035D00C90F640D8B4691463F0B6D0DDB0F844212D0854225D0002C14D161460E43704246414E
:403F8000002D35D0002E21D058425841012143420B43181C0EE06146022031430AD1A5420ED0002D12D13A4310D15B46594201231943081C3CBC90469946A246AB46F0BD08
:403FC000391C02201143F5D1002CD5D09B45ECD1AC42EADC05DBBC45E7D80FD00020BC45E8D2584641424841414201200843E1E73A43C7D10020002EDCD1D6E7C845D4D8CD
:404000000020C845EDD3D5E7FF070000F0B55F4656464D464446F0B4051C061C080387B099464F00030BCC0F92469B467F0D019467D06C4B9F4236D080205B464003184300
:40404000C0006B0F1843684B83469C4600239846EE00674400934B4649461D03C90F5B0052462D0B5B0D894600D16EE05D498B4264D080205C4940038C4600210543ED0030
:40408000500F0543D20063444846FF187B1C9A46009B604002900B430F2B00D9ACE053489B00C3589F465B461D4300D082E00823009300239B46023300269846CBE7029B57
:4040C00001934346022B59D1012400250026019B1C40444B00212D030A0D12052D0B1543434A1B0515401D436D00E4076D082543301C291C07B03CBC90469946A246AB46E1
:40410000F0BD2B434ED05B46002B00D185E1584600F034FE021C2823291C9B1A161C5846D940083EB0400B1CB54003439B462E1C0023304F0093BF1A98468CE75146294312
:404140002ED10025002202219EE75146294323D0002D00D154E1281C00F010FE031C28215046C91A1A1CC8405146083A914095400A1C05431F480021C31A85E7032B00D10A
:40418000C2E1012B00D06DE14446019B00251C40E4B2002300269DE700250022012173E7032171E70423009300239B4601330026984650E70C230093093B98464BE78025E1
:4041C00000242D030026074B84E74B46AB46161C0193884675E7029BAB46161C019388466FE7C046FF07000001FCFFFFFC620100FFFF0F800DFCFFFF330C3604360C9C4607
:40420000331C140C1204120C53439846634653439946634663430193331C41466343090C4B445B18994505D9802040028146019949440191190C039141460904090C1B0434
:404240005B1804932B0C9846331C2D04290C4B43604600934346654658435E43009B4D431B0C9946AE194E448446B54203D980235B029946CC44350C2B1C03986344844689
:404280000593009B36041B041B0CF3189C446046039058460504060C280C84465043351C81466046654344434846000C8346724314195C44A24203D98022520293465D44DB
:4042C000220CAD184A461204120C24044046A41862464A437143464360460096464670438046100C84468844E044414505D9802149028C4600996144009101980399844624
:40430000614499429B415B4299460598434684461204120C1B049B1863449C46AB4683429B4140460A19CC44A2428941E344CC45B6415C46000C8046494276425B4264182E
:40434000334398448C428941AB459B4149425B4219430D1C009B4544EE187602E50D2E43B346049B56021E43731E9E415B46D20D324366021643DB010AD50123334076088E
:404380001E435B46DB071E435B465B089B465746634BFB18002B5ADD720709D00F223240042A05D0321DB242B6417642B344161C5A46D20106D55A465A4B1A408023934697
:4043C000DB00FB18584A934234DD0124029B00251C400026554B7DE680205B460003034208D0054206D105432D032D0B4C46161C4E4B6FE65D4605432D032D0B4B4B69E6C2
:40440000504600F0BBFC031C2033272B00DCA6E65546083885400022ACE6281C00F0AEFC021C2032272A00DC75E6083885400026AB467DE65A46F608520716435A46012455
:404440005502029A5B052D0B5B0D144042E6384DED1B382D0ADD0124029B00251C400026002337E6019B5746029391E71F2D25DC304B321C9C466744BE405B46BB40371C75
:40448000EA407E1EB74113433B431E1C5B46EB401D1C730709D00F233340042B05D0331DB342B6417642AD191E1C2B0220D50124029B00251C40002601230BE65A461E4B92
:4044C000DB1BDA40131C202D1CD01C4A94465A466744BA40171C3E43721E96411E4307230025334007D00F2300253340042BD6D16B076D022D0B0124F6081E43029B1C4074
:404500000023E7E50027E6E780255B4601242D031D43019B2D0323401C1C2D0B034BD9E5FF030000FFFFFFFEFE070000FF07000002FCFFFF1E040000E2FBFFFF3E040000AF
:40454000F0B54D4644465F465646F0B40E1C111C3203520A470F1743C5001A035800DB0F9946520A4B0F83B01A43CB000193CF4B7400F60F640DB046400D984200D1E8E09A
:404580000123494659400B1C9E4200D1B1E0261A002E00DC1CE1002842D1131C01990B4300D0E6E06B0700D18EE00F232B40042B00D189E02A1DAA42AD41802301264146EE
:4045C0006D427F191B043B400E40151C002B00D183E0B64B01349C4200D116E13A1CB44BED081A405007640552020543120B640D002112030B0D1B056405120B1A436308D6
:40460000AC4CF60714401C43640064083443281C211C03B03CBC90469946A246AB46F0BDA24B9C42BED080231B041A43382E00DD03E11F2E00DD3FE12020831B9946131C4F
:4046400049468B409C46019B6046F34003430198F2408840011C481E81410B43EB1A9D4280411D1CBA1A4042171A3B0200D4A8E07A02560A002E00D1CAE0301C00F07EFBE5
:40468000031C083B1F2B00DDCBE02822291C121AD1409E400A1C9D4032439C4200DDC8E01C1B671C1F2F00DDEDE01F23291C1C1B131CA540A340F9406C1EA541FA4019439B
:4046C0000D43171C00246DE78023012642461B043B401640002B00D07BE7744BED0878070543FA089C423BD012036405120B640D7EE7231A9A46002B00DCA5E0002844D064
:404700006A48844200D14DE78020000402435346382B00DC1CE1019B1A43511E8A41D1B200224919A94280410D1CD219404217183B0246D55D4B01349C4200D169E1012044
:404740005B4A6B083A4028401843D5070543570828E7131C01990B4300D111E74B4613E72B1C134351D080231B031A431203120B3EE7013E002E00D080E0691A8D429B41E9
:40478000BA1A5B42D71A0D1C6FE7101C019B184300D107E701235B429C46E2445346002B00D002E1019BD2195919A9429B415B42D7180D1CBCE76346034300D128E1071CF2
:4047C00065466B0700D0F0E6012643461E4084E7002E00D081E0601C4005400D012800DC07E10199681A84466545B641B81A7642861B300200D4A1E08C464D1BAC458941F5
:40480000D21B4942561A984634E700220025EFE6281C00F0B3FA2030031C083B1F2B00DC33E7021C283A95402A1C00259C4200DC36E71F4FE41A1740B4E6019B1A43511E4C
:404840008A41D3B2002209E7002B00D001E1601C43055B0D012B00DCB0E0144B984200D11EE1019BD2195919A9429B415B42D2184908D5070D435708041C93E60B4B9C423C
:4048800000D0D3E68EE6211C131C1F39CB40191C202F00D18EE03F231C1BA24015436A1E954100270D4300248BE7C046FF070000FFFF7FFFFFFF0F80331C101C203BD84028
:4048C000202E79D040239B1B9A40131C019A1343591E8B4100220343C0E6002C53D0C74CA04200D1B0E0802471428946240427434946382900DDCDE01F2900DD59E1202443
:404900003E1C611A8E408A46B04649462E1CCE405146B4468D4064464646494626436C1EA541CF4035430199D71B8C464D1BAC4592415242BF1A041C984696E663466546DF
:40494000334300D096E60026002700240025C4E61F2B61DC2020C31A9B46131C59468B4051469946019BCB409C464B46604603439C465B46019999406346481E8141194378
:404980005346DA40CDE63C1C2C435DD0F1438946002955D10199D21B8C464D1BAC4589414942571A041C98465FE69448844200D0ADE6F7E5002271E7002387E73B1C2B43DF
:4049C000002C00D0DAE0002B00D113E1131C01990B4300D1E6E54919A9429B41D2195B42D7183B0200D421E1854B0D1C1F40041CD8E5381C2843002C40D1002800D083E01F
:404A0000101C0199084303D0171C0D1C9846C9E500260027002560E65046131C2038C340181C5346202B00D1C1E0402351465B1A9A40019911434A1E91410022014370E61B
:404A40006E4CA04200D053E7171C019D041C9846A8E5002C28D13C1C2C4300D18AE0DB439A46002B00D082E0019BD2199C4665449D42894149425718041C59E600285BD14A
:404A8000101C0199084300D1A4E0171C0D1C98465A4C87E53D436F1EBD410027EDB242E7041C0027002518E6544CA04262D0534680245B429A46240427435346382B00DD07
:404AC0008EE01F2B00DD9DE02024E31A9B463B1C59468B40514699462B1CCB409C464B46644623439C465B469D4063466C1EA541CF401D43019BBF189C4665449D429241DE
:404B00005242BF18041C13E6101C0199084300D148E5681A844685428041BE1A4042301A060200D447E68C464D1BAC458941D21B4942571A984635E5101C0199084334D076
:404B400080247807ED08FF0824032843274208D0D608264205D1C90852070A43101C371C9846FF00420F1743C500244C1AE5234CA042A2D1171C019D041C13E5002B35D098
:404B8000131C01990B4310D080247807ED08FF08240328432742E4D0D3082342E1D1C90852070A43101C1F1CDBE7144CFAE400223FE74C463E1C203CE6404946341C202982
:404BC00032D04026761AB7403D436F1EBD4100272543A8E680270026FF03084C00257CE53D436F1EBD410027EDB283E7171C019D024CD7E4171C019DD4E4C046FF0700004B
:404C0000FFFF7FFF54463B1C203CE3401C1C5346202B0DD0402351465B1A9F403D436F1EBD410027254365E70027CDE70D1CC8E50027F3E70B0330B5134C1A0B4B00051CC6
:404C40005B0DC90F0020A34210DD104883420EDC80200F4C40030243E41A1F2C0ADD0D48C31ADA40131C48424340581830BD0A4BC818FBE7281CE040084CA44663449A4029
:404C8000131C0343EFE7C046FE0300001D0400003304000013040000FFFFFF7FEDFBFFFF38B5041E16D0C50F00D04442201C00F065F8174B1B1A0A2821DC021C211C1532C1
:404CC00091400A1C0B21081AC4405B052403240B5B0D03E000250023002400220021101C24030A0D1205240B14430A4A1B0514401C436400ED0764082C43211C38BD0B38E5
:404D000084405B052403240B5B0D0022E6E7C0461E040000FFFF0F8010B5041E10D000F02DF8144A121A0A281ADC0B23211C1B1AD94015300B03520584401B0B520D01E0D2
:404D40000022002300211B03201C1C0B0B0D1B052343094C1205234013435B00590810BD031C0B3B9C40520523031B0B520D0024E8E7C0461E040000FFFF0F801C210123B4
:404D80001B04984201D3000C10391B0A984201D3000A08391B09984201D30009043902A2105C40187047C04604030202010101010000000000000000134A1088810703D017
:404DC0008107890F401A001D11791030484381B25088820703D08207920F801A001D800040180A494030098980B2CA0701D0503080B2890706D504495422091F0978514361
:404E0000081880B270470000720C00208410002010B501F0F9FE10BD10B501F00BFF10BD10B500F04FFA10BD10B50749044609780220002907D1204601F04CFF002802D1A5
:404E400020460AF003FB10BDDC0D002070B504460120002C12D02368002B0FD0616800290CD0074D06222889208118462968FCF7A4FB6968606809780170002070BD0000D6
:404E800084100020FFB585B0002768460E9D07734C481C460078002802D0082009B0F0BD10990F9801900095029105A807C800F0FBF80028F2D16946264603AB8446087304
:404EC000002C19D0002115E08A00B75A082F09D990198078002805D0083FB7521878401C187005E0002915D00027B75290198770491CC9B2A942E7D360460028CED10F9815
:404F000000280AD0109901F033FA0006000E04D00120C3E701208446EEE701F08BFE2948002101610C300599016021888180022D03D3A1798171A17AC17100211EE0481C01
:404F400019E082008B00A75AE65ABE46BE4211D26F463E80B4461E190296B678BE7001967646E6521719029EBB78B3706646A652019EBE70401CA842E3D3491CA942DED34C
:404F8000114800906846037B22460799069800F013F9002882D168460A4C007B60700A4801F078FE0028B4D1204607490C3007F077FA0028ADD107F091FA0028A9D10121C4
:404FC00021706BE76C0C002084100020F8B5054633480E460078002802D002242046F8BD002E5BD000242F49002D16D02A89D0070DD02868002808D003881B3BE12B04D246
:405000004088FB2801D81B2801D2012409E0900707D56868002804D1F7E70020088108604860002CDAD11F482F8907811C481B21801D018041800421017119490020891CF6
:405040000870F80705D016480622801D2968FCF7B4FA1449B80703D56A681148127882700F480D46801D0860001F486001F058FE0B48801D01F046FE28890DF085F9288935
:405080000DF0ECFA03461033FFF796FE1F21C018890140180249308088809FE701249DE76C0C002084100020FFB58446384F1C460020BB883F78054602460646002F11D10E
:4050C00000290ED0029999420BD36146002908D0002C06D00A99002906D02E4B0B99994202D2012004B0F0BD002144E0AB001F19BF78002F3BD0E35A002B38D07B43591883
:4051000089B22B0000F04AF8050410161C253100A7782388BC46FF27233BEB37BB4222D26346032B1FD322E0A388002B1FD0302B19D31CE02389002B19D0282B13D316E091
:40514000A289002A13D01346134F233BBB420AD20DE0268A002A0AD033460F4F233BBB4201D2964203D901200EE0002001E000280AD16D1CEDB2099B9D42B7D31C2463437D
:405180005B1802998B42ACD89642AAD8AAE700006C0C002079020000BAFF000030B47446641E2578641CAB4200D21D46635D5B00E31830BC18470000FFB583B0002469465F
:4051C0000C801F4606468C80002806D00598002803D004983043800701D0012467E0002FFBD03449049809888842F6D3FBF76CFDFBF7A2FD00F010FC002856D100F06CFD36
:40520000002852D12C49084601F0E6F805042D0C4BD12A480499066081800021C18007810C98007AC00704D0684601F01CFD040007D10C98007A800703D501A801F01CFD56
:405240000446BF1DFEB2002C21D13146059800F05DF804001BD10DF00FFA0406240E16D16A461088928808368518144AF1B29088D288AEB29319984207D3401B801A80B231
:4052800001F09AFB050007D000E0FF25012400F05BFA002D04D008E0F8B200F01BF9F6E700F07EFA06490120087000F0C7FB204607B0F0BD700C0020F95300009010002036
:4052C000800C002010B503480078012801D101F015FA10BD800C002070B5084B0446DA889E8800205518B54206D81D68AA182260DA885118D98070BD032070BD9010002030
:40530000014800897047000090100020F0B587B007460D4600208900009006916846FFF7DBFF844600285DD1304800990160002117E02E4B88001A680629115406D22C4C49
:405340000419667882185670628805E0C419203CA67A8218567022891B68C018491C4280C9B2A942E5D300242DE0601CC2B2059025E01E4FA300396896005818408871183C
:40538000039604904E88B04217D938466F46FE80B6464F786E4677710297049F4F800168039F5E18767879184E700168764659184E800068029F18184770521CD2B2AA42FD
:4053C000D7D30598C4B2AC42CFD36046002809D168460699FFF780FF8446002802D1054900980860604607B0F0BD0000840C002070630100880C00207047000010B50028FD
:4054000009D005494A68002A05D0011F08788000105801F07FFA10BD840C002010B50446FFF76EFFC0B2801DA0420CD307484068002808D0A100405801F0DEF9002801D0F2
:405440000470001D10BD002010BD0000840C0020F8B516460D460446FFF752FFC0B2801DA04203D20020C0430090F8BDB2B2E9B2684601F0E7F90099481C03D0024AA000DC
:40548000526811500098F8BD840C0020F8B50746FFF736FF801DC6B20A49002005460C680DE06178002907D06188B94202D32078FFF7B4FF002804D1241D6D1CEDB2B5424B
:4054C000EFD3F8BD840C002010B5002801D0FFF795FF10BD70B506460948002504680BE06178002905D062882078121D0023FFF7AFFF241D6D1CEDB2B542F1D370BD000092
:40550000840C0020FFB581B00A9C16002BD000F0F1F80546042826D0214F002C0BD02046FFF7B4FF2901C919486000281BD022460499FCF742F81A4928010E50461874811D
:40554000019805707D20029CC000444300F0C0F8009004280AD000F055FAA0420ED800F051FA201A06E0FF2005B0F0BD204600F0ADFA0020B08135720020F5E700F042FA5D
:40558000074600F0B9FA381B87B23846012100F0EFF800980101024808188781E6E700009C100020F8B5060117483418217A042903D0A089002802D018E00020F8BD00F079
:4055C00021FA054600F098FA00F0A2F804280DD001010D480F18B88941198DB2002100F0C7F80020B881284600F070FA6068064D002801D0FFF768FF042020720020A851A7
:405600006081A081D9E700009C100020FEB500266A46304601232549050169180D7A042D02D0898900291BD000211154401CC0B20428F0D300246846005D002830D01B4817
:405640002101081841894768056802910021016041600422418102728181002E02D015E01354E3E700F054F804280ED001010F480818019086890021304600F079F80198D8
:4056800000218181304600F021FA0126002D07D038460299A847002F02D03846FFF714FF641CE4B2042CC6D3FEBD00009C1000200EB5002005216A4600901181508103482E
:4056C000694600680DF04DFE0EBD00008C0C0020074A0020010189180B7A042B02D08989002903D0401CC0B20428F3D3704700009C1000200549002002015218127A042A48
:4057000003D0401CC0B20428F6D370479C10002030B50A4B04200A4C00210A011219157A042D06D09289002A03D09A4201D808461346491CC9B20429EFD330BDFFFF000081
:405740009C1000207047000030B50020074C05460423020111190B72A5504D60401C4D81C0B28D810428F4D330BD00009C10002030B5094C00231A011219157A042D04D003
:405780009589002906D02D1895815B1CDBB2042BF1D330BD2D1AF7E79C100020002070471CB5002469460C70142001902346054A05480DF0DBFD04480068401C00D1FF2402
:4057C00020461CBD1D5800008C0C00203EB5124A0146FF2000230124126800290DD0012914D0042908D104206946009308814B8110460DF0B6FD80B23EBD684600930481F8
:405800004381694610460DF0A7FDF4E768460093048143816946EBE78C0C002070B545890468416800890300FFF7B8FC08280509091E22282628002005F044FD1EE00229A6
:4058400008D0C8B22A4621460BF04EFF2046FFF73BFE13E002202A4621460BF045FF2946204600F00DF809E000200DF069FA05E02046FFF7CBFE01E0FBF70AFA002070BD96
:40588000014B0022DB681847900C002070B5448905680089022803D0032809D0FF2070BD2246094C0023A46829460120A04708E0FFF7B2FA241DA2B200232946022006F0BB
:4058C000A0FC002070BD0000900C002070470000024800214160018041807047900C002070B50C46002186B016460391012802D0022859D116E003A9012006F0E2FC0128BE
:405900001BD1039D324621462846FBF756FE0095287801900220694608814E816846FFF7B5FF41E0214D002B686809D0049004A9022006F0C6FC01281DD0022006B070BD68
:40594000002812D0298840182146FBF736FE28880024801980B228806988091D884206D12C801348FFF792FF03E00320E6E788421AD96C6018E004986860E278A3781102BA
:4059800019430B4A698000231060E3565360032313815181A1788170E178C1706178417021780170042028800020C7E7900C0020DC1000203EB515460C46022803D00428EF
:4059C0000CD000203EBD0091019002206946088107484A8100680DF0C4FC07E00BF084FE044B0022DB6829462046984701203EBD8C0C0020900C0020014AD1609060704776
:405A0000900C0020034801688068081A0A21484300097047E810002010B5FBF773F9482204490548FBF7C9FD03490120C870002010BD00008C630100EC14002010B5FBF726
:405A400083F910BD70B5134C2368002B08D0207B1149C20705D04008400020738868A08070BD88680B4AA18880B29268814203D90A4D691A091802E0814202D2411A51186F
:405A8000A160A080A0689842EAD30DF087FC00F013F870BDE8100020C0102E40FFFF000010B508461946FFF7A7FF10BD704710B5FFF780FF10BD0000034800210160416023
:405AC0008160C16070470000E8100020024610B5FF20002A0CD0FFF7EFFF064C0321207B0843207310010A21FBF730FC2060002010BD0000E810002000B504480A218068DD
:405B000048430209FFF7D8FF104600BDE81000200248007B8007C00F70470000E810002010B544490868002802DA434B01221A70022290430860414800693E49C00B4031D8
:405B4000096A08425ED0012000F0D0FA3B483C497C30FBF7A1F937480E216C30FBF79CF9364820218430FBF797F9344814219C30FBF792F93148FF21C131A430FBF78CF989
:405B80002E48FF212F31B030FBF786F92B482D49BC30FBF781F929482B49AC30FBF77CF929492648491CB430FBF776F923482749B830FBF771F921482549CC30FBF76CF962
:405BC0001E4824490830FBF767F91C482249A830FBF762F9194821498830FBF75DF917481F498C30FBF758F914481921C9029030FBF752F9FBF7B6F8FBF762F8C0B20228DD
:405C000002D00FE0FF2010BD16491748FBF744F915481649001DFBF73FF9134800210830FBF73AF954200449C043891C0870002010BD000000F02E40A00C002000002E4088
:405C400055650000320300002F3F00003102000010520000EC160000FA12000031D000003AE300009956000080012E40F80F000070B50646581C80B245086D00002408E044
:405C8000304600F0C1F81055000A1119A41C4870A4B2AC42F4D3D80705D0D0182038D15CC47FD454C17770BD30B50A4C002100195B1E07E0541864782502545C2C430480D1
:405CC000891C89B29942F5DB994201D1515C018030BD000000102E4010B5FF2000F006FA0F49FF2048700E481021801D41800121417001700A490020C91C4870FFF710FF92
:405D000004000AD100F01AF907210648FBF7C6F8044807211830FBF7C1F8204610BD0000A00C0020CC112E4070B5002405465B1E0AE0284600F068F8010A161971702D1D90
:405D40001055A41CADB2A4B29C42F2DB9C4203D1284600F059F8105570BD000070B500210A4D5B1E0AE0541864782602545C344346193480001D891C80B289B29942F2DB2A
:405D8000994202D1515C4019018070BD00102E40F0B50599091FCFB200217E1E0BE0541864782502545C2C43164D45192C80001D891C80B289B2B142F1DBFC0712D01C780D
:405DC000515C24020F4A0C4381180C809C785D78001D210280B2294384182180001D80B2D9780CE059781A7809021143054A84182180001DD9789B78090280B21943801873
:405E00000180F0BD00102E40014940180088704700102E4010B50B490020487000F08EF8002000F089F9002000F076F907210648FBF734F8044807211830FBF72FF8002056
:405E400010BD0000A30C0020CC112E4010B506480078012803D102210448FBF71DF802490020C91E087010BDA30C002070F02E4010B50B46062812D006DC01280CD00328D1
:405E800001D1FFF7C7FF10BD0A28FCD00B28FAD105480078107010BDFFF71EFF10BD1146184600F065F910BDA60C0020F8B5204DAC6A0127A0071F4E002816DA307806289D
:405EC0000ED1286A384328621B480069F903084381B219481030FAF7DFFF042000F006F9134802212830FAF7D9FFE00711D0062000F0FCF80F49FF20C91E487070780028CC
:405F000002D1686B38436863094801212830FAF7C5FFE0050BD53078042802D1052000F0E5F80348FF2101312830FAF7B7FFF8BD40F02E40A30C002000002E4010B5032182
:405F40002348FAF7A9FF0120FAF706FF20483038406A204C80076178800F890001431C480C38FAF799FF6078002808D0401E022181401820FBF7DAFAC000083800E0B82063
:405F800081B21548FAF788FF1348032109021438FAF782FF10481149B830FAF77DFF612189010F48FAF778FF0D480321001FFAF773FF0C490C48FAF76FFF0B480B4960387D
:405FC000FAF76AFF084801218838FAF765FF10BD70F02E40A60C0020D8102E4090890000041E2E40FF0F000058122E4020900000044800684007400F022801D000207047A2
:406000000120704700010B4000B5FFF7F1FF002805D009480168C908C900016000BD0748016A490849000162054801690122D2039143016100BD000000010B4040F02E40EF
:4060400000002E400849087806280BD148780749002803D1486B400840004863C86A01221043C86270470000A30C002040F02E400148007870470000A30C002002484078A6
:40608000022800D001207047A00C002000B50300FFF784F8080D050D0B070507090D012000BD032000BD042000BD022000BDFF2000BD0000074A9168D26889B2064B92B20F
:4060C000994204D105498A4201D1012100E000210170704780002E4033D000003FE300000149487070470000A30C002010B50446FAF722FE072C01D9FF2C01D10248047036
:40610000FAF722FE10BD0000A30C00200149487070470000A00C002010B5064A012805D01921C9021046FAF7B7FE10BD1D21C902F8E7000090002E4010B50A4A141D0128F3
:4061400008D009491046FAF7A7FE08492046FAF7A3FE10BD04491046891CFAF79DFE0349491DF3E788002E4031D000003AE3000070B50C460546FAF7A3FDC0B202280E4939
:40618000287804D0FF2810D04C280CD810E0FF2809D10A4AD0680004800F032801D0087807E09069000A553803E00878207070BD4F382070087070BDA20C002000002E40F1
:4061C000F0B50122002830D000292ED00424420600D00524792342065B06D21800D0641C034600221EE00C2516466E43104D00277519AF720E4F002ABB51696007D0661E0F
:40620000B24209D10B4E86197606760E05E05E06760E8027BE1B00E080269B198919521C2E81D2B2A242DED300221046F0BD00007413002079020000074900200C224243CF
:406240005218927A012A05D0401CC0B20628F5D3002070470120704774130020F8B50F000446164609D0184D18496868A04202D94018A04201D38E4201D90120F8BD3946F3
:406280002046FBF78BF900281BD0324639462046FBF793F9F0B200210C224A43521913895668F718A74208D90127A41B1B1B9772834206DAC01A1469C0B2491CC9B2062955
:4062C000EAD30020F8BD0000741300207902000010B500F05DF80748054AC16806480C46FBF76BF904492046FFF76AFF10BD000079020000AC0C0020F810002000207047F2
:406300000020054A002902D0012902D002E0506000E0906000207047AC0C002070B5084C154608460549A26889182A46FBF745F9A0684019A06028B270BD0000F81000209B
:40634000AC0C00203EB50A226946FFF7E7FF044606480A2200686946FBF720F9002802D00020C0433EBD20463EBD0000AC0C0020002802D0044A914201D2FF207047034954
:406380000A61C8600020704779020000AC0C0020024800214160816070470000AC0C002070B5074C15460548626880182A46FFF755FF60684019606028B270BDF810002058
:4063C000AC0C002010B503490A220968FFF7E8FF10BD0000AC0C002010B50F4A002313600E4A13600E4B18600E4801600E49012008600E490860000290600E490C480860EA
:406400000D4914300860FF381538506000F0BCF800F0CAF9002010BDD80C0020C00C0020EC0C0020F00C0020DC0C0020CC0C0020BC140020D00C0020E40C0020014610B5B6
:406440000020002910D0094B1A689C685118A14209D25868196080188A0704D08A07920F891A091D196010BD002010BDC00C0020F8B50024164E671E321F3D463168136800
:4064800006E01422624310328A58521C1BD0641C9C42F6D36A1C14D02C461422544322460C3288500C214843FFF7C8FF3168002808510AD031680020103408517068401C5D
:4064C00070602846F8BD2546E4E73846F8BD0000D00C0020F3B50026F64381B000281BDB1E490968884217D80299002914D01B4F142204463F1D54432546396810354859E6
:40650000401C09D0FAF718FC38682F1F4159C359994203DBFAF718FC3046FEBD214608310091465801590C20704308180C220299FBF743F80948761C001D0068C159B142FB
:4065400000D100260549009A091D865008684159491C4151FAF7F8FB0020FEBDCC0C0020002803DB07490968884202D90020C043704704491422091D0968504310300858F5
:4065800070470000CC0C0020F0B500200D4A451E0346171F50600FE014260146714314680E1DA3510C461668083433511668083435511468401C635039688842ECD300201A
:4065C000F0BD0000D00C0020F3B50026F64381B0002841DB2349096888423DD8029900293AD0204F142204463F1D54432546396810354859401C2FD0FAF79EFB38684159F9
:4066000000292BD0211D009146580C21005971430F46C1190C220298FAF7CFFF11480021001D0068761C00590C34C0190160416081600C48001D00680159B14200D10026D6
:406640000849009A091D865008684159491E4151FAF77AFB0020FEBD3046FEBDFAF774FBFAE70000CC0C0020FEB504460D4600201E49089E0860471E009001900290002C5C
:4066800011D0486885420ED2002A0CD0002E0AD0642E08D808460C3001681C2068430C18207A002801D03846FEBD0120226020721846FFF7DDFE6060401C13D06681A681E7
:4066C0000A4827610C3067610179A94200D205710021684601810A462846029B00F040F82846FEBD00202072DDE70000D80C002038B50124009400F039F838BDFEB5002702
:40670000164EFF433D4600240EE01C20316860430818017A002906D04068FFF721FF002801D0254603E0641C3079A042EDDA681C12D01C2130684D434419FAF7FDFA694676
:406740006068FFF741FF0546FAF7FEFA002DD9D1216868468847D5E7FEBD0000E40C002038B50024009400F001F838BD1FB500220C49541E0A60002811DB496888420ED864
:4067800008491C220C31096850430818406801A9FFF7A0FE401C02D0002004B010BD2046FBE70000D80C0020F0B50021114A4D1E174611710C3F0B46BD6016E008461C2440
:4067C00060431668041D355114680646235014680836A3551468361DA353044616680A34335318301468491C255078688142E5D30020F0BDE40C002038B5002100910028F6
:4068000011DB0F49097888420DDA0D4D04010C3529680859002807D0201D0818694600F06FF9002801D0002038BDFAF785FA28680F34015D491E0155FAF786FA009838BD83
:40684000F40C0020F7B582B0002502986E1E06602E48D21C024017462D4A2C4610460C380178106805E02301C358002B0FD0641CE4B28C42F7D3711C28D03401211D4018C6
:406880000191039900F02AF900281FD101E02646F1E71F48016820460C300F521C480399026820460E30115419480399026820460F3011540398784300F0A0F81449002840
:4068C0000968085102D00024009011E001251AE00F48016801980818009900F02CF9002801D0012502E00098C0190090641CE4B203988442ECD3002D05D102980660044889
:406900000179491C0171284605B0F0BDFCFF0000000D0020F8B50D4600216A468C461180002839DB23490978884235DA214B04010C3319680A59002A2ED020460C300B5A15
:40694000801C0E5C184670438018954224D3854222D2002006E007465F43BF18AF4206D0401CC0B2B042F6D36046002814D0114E271DC8190C366A46294600F006F9002815
:406980000AD168460088012808D030682946C01900F0D1F8002803D00120F8BD0020F8BDFAF7CAF930680F34015D491C0155FAF7CBF9F3E7F40C0020F8B50F46002400F019
:4069C00031F8002817D10C4900220B460C334A600EE021011D680E466A501D680C36AA53B61C1D680F31AA551D68641C6A54E4B2BC42EED31A71F8BDF40C002000280BD035
:406A0000C01C074A81085068890053884118994203D89368516018187047002070470000F40C0020F8B5064600200F4D009029700C0121466846FEF74FFC00280CD1294677
:406A40000C3100980860301B001F84B221466846FEF742FC002801D0FF20F8BD6C800098A8600020F8BD0000F40C0020F8B5002827DB19490978884223DA174C05010C3479
:406A80002168485900281CD028460C30085A009028460E300E5C401C0E5420682F1DC01900F064F800280CD12068002445590EE0094829460C300068C01900F03CF8002869
:406AC00001D00120F8BD00982D18641CE4B2B442EED30020F8BD0000F40C002030B50D4604000BD0A800FFF789FF6060002805D000202570C0436080002030BD012030BDA3
:406B000070B50D46040005D0002D03D00220205E002801DA012070BDFAF70EF90221615E60688900405828606088401E6080FAF70BF9002070BD70B50D46040007D0002DE0
:406B400005D002212078615E401E814201DB012070BDFAF7F1F86088401C00B26080616880000D50FAF7F0F8002070BD10B5040009D0227800216068FAF728FD0020C043A1
:406B80006080002010BD012010BDF0B500231D46002802D00224045F0AE00120F0BD46689F00F6598E4201D1012503E05B1CDBB29C42F4DA15700020F0BD000001480078AA
:406BC00070470000080D00207CB505460024FEF723F9A8796946087000A8062229460130FAF7EBFC0021684604F032FE0C2804D0072804D01F2804D004E0022402E004243B
:406C000000E0272420467CBD10B502280BD0032802D0042809D102E000F092F905E000F03DFAFF2801D100F04DFAFFF721FAFFF72DFA10BD10B500F075FAFFF719FAFFF706
:406C400025FA10BD70B504460025FEF7E5F8002C06D0A079012803D8214602F017FD00E00125284670BD01460120002902D05020088000207047000001460120002905D0FD
:406C8000034854220078504308800020704700000A0D002010B502460D49FE204870032410460CF081FE002810D10CF025FE00280CD105F063FB002808D100F03DFC00286F
:406CC00004D105F049F8002800D10024204610BD080D002070B50025044600280ED0A07901280BD8FEF798F8A0790028204602D003F0A8F803E003F07DF800E001252846F5
:406D000070BD0000014610B50120002904D006220248FAF752FC002010BD00000C0D002001460120002903D00878024908700020704700000A0D002070B592B00E4605466A
:406D40000024FEF769F802F085FD00280AD000F0EFFD002806D0002D0ED0EA7F1F2A03D9012409E002242EE000A829460130FAF724FCE87F69460870002E0FD0002C22D15B
:406D8000F27F1F2A01D901241DE008A831460130FAF713FCF07F08A9087001E0002C12D10020002D04D010A9684600F0F1FD0120002E04D010A908A800F07CFE01E00028D8
:406DC00001D000F077FD204612B070BD10B5FFF74FF9012801D1FFF751F910BD38B504460120002C20D0617801291DD800290BD0FF25E535FEF710F80C4828180088C0B2C5
:406E00002070072803D00EE0FF25CD35F2E70020694608706846FFF74DF969460878012801D108202070002038BD000000102E40F8B504460120002C26D06178012902D915
:406E40002278092A20D8002905D0FF25E5352078092803D004E0FF25CD35F8E708202070FDF7DAFF2078114F114E08280DD00020FFF762F970780128207810D00D496918D2
:406E80000880FE2070700020F8BD0120FFF754F90720B8810549203188800120F2E7B8810248217820308180EBE70000C0112E40080D002000102E4070B50E46050001D092
:406EC000002400E00C4C002C11D0E28A500609D5D107C90F022003F053F8E08A40218843E08204E0D107C90F012003F049F83146284602F027FD70BD54150020F8B50546EF
:406F0000002004460D4E009013E022466946284601F04AF80098002801D00CF027FDA878214602F0FDFAA878214602F0EBFA641CE4B2308AA042E8D8F8BD00000C16002069
:406F4000FEB54E4DFFF794F8012849D14C480078002845D002F07EFC002841D004F01AF900283DD0474C6078C00703D000F0E6FC012835D0207E00287DD160780026002895
:406F80005BD0000706D540488089070B00F02EF9384370D13B484178684603F065FF044628793A4DA9784018C1B2A14261D802F051FC00285FD0344860300089314F019057
:406FC000203702F09DFA6846008802F0C7FA02F057FB2F490988884203D10120FFF786F849E02C49012008702648807B00281BD00198002818D04037F87E002814D1224888
:40700000603000884000A0420AD96878002807D102F0E4FF2049088A03221202104308822878002800D02E7002F0C6FA0120FFF757F800F0F5FB174C15E002F00BFC0028C6
:4070400019D0102402F01CFB214602F011FA02F085FA104C0120207002F0AEFA0020FFF73FF800F0DDFB20780128B6D1FEF7CCFF26700020FEBDFF20FEBD00002C150020A5
:40708000A00C002034150020A0102E40180D00202A0D0020120D0020E0112E4010B50848FF244078002809D102F0D4FB012805D1FEF7CCFE0720FFF719F80024204610BD4D
:4070C0003415002038B5FEF7D3FF012801D0002038BD02F0BFFB00280AD0114C6078C00703D000F02BFC012802D0207E002801D0FF2038BD617800290FD0684603F0B4FEF6
:40710000022806D96846008802F028FA012002F059FA0320FEF7EAFFD9E70020F7E700003415002038B51E4CFEF7A2FF042813D0052811D0062812D003282AD007280AD125
:4071400000206946087002460120FEF791FEFEF78FFF0128FBD138BD00F082FB38BD02F049FA00F07DFB02F0C5FA8007800F0228F4D10C4841880029F0D05B21095D0029A8
:40718000ECD101210170A07D0140022002F0F8FE38BD02F033FA0120FEF7A8FF38BD000054150020180D0020F8B50646002402F055FF0546304602F06BFF03460A48002147
:4071C000068A0DE001228A401046174628401F40002803D0002F01D1224394B2491CC9B28E42EFD82046F8BD0C16002070B500252C460A4E03E0002C01D0002000E03046C6
:407200000079002803D02046FFF7CEFF0543641C2406240EEFD0284670BD0000541500201CB50020694648706846FFF7D7FD01AA69460A20FEF71CFE6946042008561CBD3D
